S010000052544F535F4150502E737265638C
S11300000C942A000C9447000C9447000C9447006D
S11300100C9447000C9447000C9447000C948703FD
S11300200C9447000C9447000C9447000C94470030
S11300300C9447000C9447000C9447000C94470020
S11300400C9447000C9447000C9447000C94470010
S11300500C94470011241FBECFE5D8E0DEBFCDBF0E
S113006010E0A0E6B0E0E0EFF5E102C005900D92EB
S1130070A238B107D9F725E0A2E8B0E001C01D928B
S1130080AF35B207E1F70E94A80A0C94F60A0C9463
S113009000009BB321E030E001C0220F8A95EAF70B
S11300A029272BBB08959BB3809598239BBB089568
S11300B09AB3982B9ABB0C94530080E70C9453008A
S11300C080E70E9458000C945D0084B38C6184BB6B
S11300D085B38C6185BB81B38F7181BB82B3806E24
S11300E082BB089585B38C6185BBE0E0F0E0A1E0BC
S11300F0B0E085B39F012E5F3F4FAD0101C0440FB7
S11301002A95EAF7942F9095892385BB20E030E067
S113011080B3B9016B5F7F4F90E0062E02C09595C6
S113012087950A94E2F780FD18C041E050E002C0D0
S1130130440F551F6A95E2F780B390E0842395231A
S1130140892BD1F3CF01880F991FE80FF91FEE59BE
S1130150FF4FE20FF31F808108952F5F3F4F23303D
S11301603105B1F685B3482B45BB3196E330F10533
S113017009F0BFCF80E00895DA9A85E08A95F1F717
S11301800000DA980895CF93C82FDB9888B3887F4E
S113019088BB98B38C2F82958F70282F2770922B51
S11301A098BBC49898B3880F8071892B88BB0E9430
S11301B0BC0088B3887F88BB88B39C2F9770892B39
S11301C088BBC49888B3CC0FC071C82BC8BB0E942D
S11301D0BC0085ED8A95F1F70000CF91089590E475
S11301E0899F600D1124862F815C0C94C300CF93EA
S11301F0C82FDB9A88B3887F88BB98B38C2F8295ED
S11302008F70282F2770922B98BBC49898B3880FAF
S11302108071892B88BB0E94BC0088B3887F88BB0F
S113022088B39C2F9770892B88BBC49888B3CC0F54
S1130230C071C82BC8BB0E94BC0085ED8A95F1F73C
S11302400000CF91089582E00E94C3008FE19EE4F4
S11302500197F1F700C00000089581E00E94C300F7
S11302608FE19EE40197F1F700C00000089587B381
S1130270876087BBBC9AD39AD29A2FEF89EF90E01C
S1130280215080409040E1F700C000000E9423010B
S113029088E20E94C3008CE00E94C30086E00E94B2
S11302A0C3000C942D010F931F93CF938C01C0E0D6
S11302B0F801EC0FF11D8081882321F00E94F700E2
S11302C0CF5FF6CFCF911F910F910895CF93DF9316
S11302D0EA010E94EF00CE01DF91CF910C9453010B
S11302E0CF93DF93EC010E946D078091820090917F
S11302F08300892B31F487E890E090938300809306
S113030082002091840030918500C9018C0F9D1FCB
S11303108D3744E0940770F42817390758F4C091D6
S11303208200D0918300C20FD31F909385008093E5
S1130330840002C0C0E0D0E00E942208CE01DF9118
S1130340CF9108950895FC010396928381832FEF42
S11303503FEF34832383968385839087878310823A
S11303600895FC01118610860895CF93DF939C01B4
S1130370FB01DC011196CD91DC911297D383C283EA
S11303808C819D81958384838C819D81DC0113966E
S11303907C936E9312977D836C8331872087F90158
S11303A080818F5F8083DF91CF9108950F931F9396
S11303B0CF93DF938C01FB01808191818F3F2FEFDD
S11303C0920721F4E801AF81B8850EC0D8011396D5
S11303D012962D913C911397E90148815981841714
S11303E0950710F0D901F4CF12968D919C91139733
S11303F093838283EC01FD83EC83B583A4831396FA
S1130400FC93EE93129711870087F80180818F5F28
S11304108083DF91CF911F910F910895CF93DF9344
S1130420FC01A085B1858281938124813581EC0111
S11304303D832C83C481D5819B838A8311968D91BE
S11304409C911297E817F90721F41296DC93CE9346
S11304501197118610868C9181508C93DF91CF91E6
S1130460089531E1FC013083319722E220833197F2
S1130470A3E3A0833197608331977083319710820F
S1130480319760E8608331971082319762E060832E
S1130490319763E06083319764E06083319765E06E
S11304A06083319766E06083319767E060833197BA
S11304B068E06083319769E06083319760E160832D
S11304C031973083319732E13083319733E1308390
S11304D0319734E13083319735E13083319736E118
S11304E03083319737E13083319738E13083319766
S11304F039E13083319730E23083319731E2308310
S113050031972083319723E22083319740833197B9
S11305105083319726E22083319727E22083319755
S113052028E22083319729E22083319720E3208336
S1130530319721E32083869708951BBC89EF8ABDF8
S11305408BE08EBD89B7806189BFA0915B05B091B6
S11305505C05CD91CDBFDD91DEBFFF91EF91DF91C1
S1130560CF91BF91AF919F918F917F916F915F9147
S11305704F913F912F911F910F91FF90EF90DF903A
S1130580CF90BF90AF909F908F907F906F905F902F
S11305904F903F902F901F900F900FBE0F90089593
S11305A081E008950F920FB6F8940F921F921124D0
S11305B02F923F924F925F926F927F928F929F926F
S11305C0AF92BF92CF92DF92EF92FF920F931F935D
S11305D02F933F934F935F936F937F938F939F9347
S11305E0AF93BF93CF93DF93EF93FF93A0915B05FA
S11305F0B0915C050DB60D920EB60D920E94E708FF
S1130600A0915B05B0915C05CD91CDBFDD91DEBFBE
S1130610FF91EF91DF91CF91BF91AF919F918F9116
S11306207F916F915F914F913F912F911F910F9106
S1130630FF90EF90DF90CF90BF90AF909F908F90FE
S11306407F906F905F904F903F902F901F900F90EE
S11306500FBE0F9008950F920FB6F8940F921F9249
S113066011242F923F924F925F926F927F928F92BA
S11306709F92AF92BF92CF92DF92EF92FF920F932D
S11306801F932F933F934F935F936F937F938F9316
S11306909F93AF93BF93CF93DF93EF93FF93A09177
S11306A05B05B0915C050DB60D920EB60D920E94DD
S11306B0730781110E94E708A0915B05B0915C0566
S11306C0CD91CDBFDD91DEBFFF91EF91DF91CF9151
S11306D0BF91AF919F918F917F916F915F914F9156
S11306E03F912F911F910F91FF90EF90DF90CF904A
S11306F0BF90AF909F908F907F906F905F904F903E
S11307003F902F901F900F900FBE0F9008950E945E
S11307102B0318951F93CF93DF93EC01142F4C8D6B
S113072041110CC088819981892B09F041C08A81CB
S11307309B810E94230A1B821A823BC050E0111144
S113074015C08C819D810E94ED0A2C8D8C819D8128
S1130750820F911D9D838C832A813B81821793078D
S113076038F1888199819D838C8322C08E819F81F9
S11307700E94ED0A8C8D90E09195819591092E81CE
S11307803F81280F391F3F832E83488159812417C5
S1130790350730F42A813B81820F931F9F838E8318
S11307A0123031F48A8D882319F08A8D81508A8F12
S11307B080E09A8D9F5F9A8FDF91CF911F9108956A
S11307C0FC01CB01448D4423A1F050E02681378104
S11307D0240F351F378326836281738126173707D9
S11307E020F02081318137832683668177810C94C0
S11307F0ED0A08950F931F93CF93DF93EC010FB687
S1130800F8940F928C010F5E1F4F8E8D18166CF4A6
S11308108989882351F0C8010E944F0981110E94DF
S1130820C6098E8D81508E8FF0CF8FEF8E8F0F90F3
S11308300FBE0FB6F8940F928E01085F1F4F8D8D77
S113084018166CF48885882351F0C8010E944F095A
S113085081110E94C6098D8D81508D8FF0CF8FEF4D
S11308608D8F0F900FBEDF91CF911F910F9108953F
S1130870CF93DF93EC010FB6F8940F92288139815E
S11308809B8D4C8D949FC0011124F901E80FF91F31
S1130890FB83EA831A8E3D832C83841B9109820F88
S11308A0931F9F838E838FEF8D8F8E8F61110CC06A
S11308B08885882389F0CE0108960E944F098130EB
S11308C059F40E94D20208C0CE0108960E94A301E6
S11308D0CE0141960E94A3010F900FBE81E0DF91EB
S11308E0CF9108950F931F93CF93DF938823E9F05B
S11308F0062F182F8FE190E00E947001EC01892BE4
S1130900A1F0109FC001112401960E9470019983E7
S11309108883892B39F01B8F0C8F61E0CE010E94F4
S1130920380405C0CE010E94A201C0E0D0E0CE018F
S1130930DF91CF911F910F910895AF92BF92CF9203
S1130940DF92FF920F931F93CF93DF9300D000D0D9
S11309501F92CDB7DEB78C016B015D834C83F22E01
S113096080E0580198E0A90EB11C0FB6F8940F92DC
S1130970F801228D938D291718F0F2E0FF1218C0A8
S11309804F2DB601C8010E948A03F8019189992369
S113099049F0C80141960E944F09813029F40E9410
S11309A0D20202C08111FBCF0F900FBE81E050C074
S11309B02C813D81232B19F40F900FBE48C0811167
S11309C004C0CE0101960E948F090F900FBE0E94B1
S11309D06D070FB6F8940F92F801858D8F3F09F4D7
S11309E0158EF801868D8F3F09F4168E0F900FBE79
S11309F0BE016C5F7F4FCE0101960E949A0981115E
S1130A0021C00FB6F8940F92F801928D0F900FBE8B
S1130A10838D981311C06C817D81C5010E943309B7
S1130A20C8010E94FA030E942208882311F081E081
S1130A309CCF0E94D202FBCFC8010E94FA030E94FD
S1130A402208F5CFC8010E94FA030E94220880E020
S1130A500F900F900F900F900F90DF91CF911F91F7
S1130A600F91FF90DF90CF90BF90AF900895AF9219
S1130A70BF92DF92EF92FF920F931F93CF93DF9376
S1130A8000D000D01F92CDB7DEB78C017B015D830F
S1130A904C83D22E80E0580191E1A90EB11C0FB60F
S1130AA0F8940F92F801928D992389F1A680B7806A
S1130AB0B701C8010E94E003F801D11019C0828D6A
S1130AC08150828F80819181892B29F40E945D0A53
S1130AD0F80193838283F80180858823A1F0C801FB
S1130AE008960E944F09813071F40E94D2020BC013
S1130AF0B782A6828189882331F0C80141960E9479
S1130B004F098111F2CF0F900FBE81E05CC02C81A0
S1130B103D81232B19F40F900FBE54C0811104C0E2
S1130B20CE0101960E948F090F900FBE0E946D079F
S1130B300FB6F8940F92F801858D8F3F09F4158E46
S1130B40F801868D8F3F09F4168E0F900FBEBE01FB
S1130B506C5F7F4FCE0101960E949A0981112DC0CE
S1130B600FB6F8940F92F801828D0F900FBE811189
S1130B701EC080819181892B49F40FB6F8940F929D
S1130B80828193810E94CA090F900FBE6C817D817E
S1130B90C5010E943309C8010E94FA030E94220879
S1130BA0882311F081E07BCF0E94D202FBCFC801E1
S1130BB00E94FA030E942208F5CFC8010E94FA039A
S1130BC00E94220880E00F900F900F900F900F90DA
S1130BD0DF91CF911F910F91FF90EF90DF90BF9025
S1130BE0AF900895E0912305F0912405808181114F
S1130BF003C08FEF9FEF0CC0E0912305F091240513
S1130C000580F681E02D0680F781E02D82819381B5
S1130C1090936100809360000895CF93DF93E091F7
S1130C205B05F0915C059383828320910B053091E1
S1130C300C058217930770F460915B0570915C0555
S1130C4080912105909122056E5F7F4FDF91CF91B6
S1130C500C94D601EC0160915B0570915C05809168
S1130C602305909124056E5F7F4F0E94D6018091E9
S1130C70600090916100C817D90720F4D0936100F7
S1130C80C0936000DF91CF9108955F926F927F923D
S1130C908F929F92AF92BF92CF92DF92EF92FF9288
S1130CA00F931F93CF93DF934C01162F572E5A01A6
S1130CB039018FE290E00E947001EC01892B79F0F8
S1130CC0C114D10421F4C5010E94700101C0C60100
S1130CD0988F8F8B009729F4CE010E94A2018FEF89
S1130CE0BAC0650121E0C21AD108C80ED91EBE01DE
S1130CF0675E7F4FE12FF52DCF0144969F0141910F
S1130D00DB014D93BD01D9012C91222319F0E81781
S1130D10F907A1F71CA6102F043008F013E01E8B6E
S1130D201DA71EA65E01B2E0AB0EB11CC5010E9458
S1130D30B101CE010C960E94B101D987C88784E025
S1130D4090E0811B91099D878C87DB8BCA8BA30163
S1130D50B401C6010E94310299838883E114F1042D
S1130D6019F0F701D183C0830FB6F8940F928091E4
S1130D700D058F5F80930D0580915B0590915C0557
S1130D80892BA9F5D0935C05C0935B0580910D0573
S1130D908130E1F587E395E00E94A30180E495E0CA
S1130DA00E94A30189E495E00E94A30182E595E0F5
S1130DB00E94A3018EE295E00E94A30185E295E0E2
S1130DC00E94A30188E195E00E94A3018FE095E0D1
S1130DD00E94A3018EE295E090932405809323055D
S1130DE085E295E090932205809321050FC08091C0
S1130DF0090581110BC0E0915B05F0915C058689C2
S1130E00081720F0D0935C05C0935B05809105051D
S1130E108F5F809305058E8990910A05981710F4C9
S1130E2080930A05F9E08F9FC0011124B501895C04
S1130E309A4F0E94B5010F900FBE80910905882337
S1130E4049F0E0915B05F0915C058689801710F408
S1130E500E94D20281E0DF91CF911F910F91FF9008
S1130E60EF90DF90CF90BF90AF909F908F907F9046
S1130E706F905F900895AF92BF92CF92DF92EF92FE
S1130E80FF920F93A12CB12CC12CD12CE12CF12C6D
S1130E9000E020E030E045E550E06BE670E083EBF5
S1130EA098E00E944506813081F4F8948093090506
S1130EB010920C0510920B050F91FF90EF90DF90AC
S1130EC0CF90BF90AF900C949D020F91FF90EF9044
S1130ED0DF90CF90BF90AF900895809104058F5F0D
S1130EE0809304050895CF92DF92EF92FF920F93BF
S1130EF01F93CF93DF938091040581118FC080915C
S1130F000B0590910C05019690930C0580930B05AD
S1130F10E0900B05F0900C05E114F104B9F4809114
S1130F2023059091240520912105309122053093C9
S1130F302405209323059093220580932105809115
S1130F4006058F5F809306050E94F205809160007C
S1130F5090916100C0E0E816F90608F44FC0D9E0AA
S1130F60E0912305F09124058081811103C08FEF66
S1130F709FEF11C0E0912305F09124050580F681CF
S1130F80E02D06811781D80112968D919C911397BB
S1130F90E816F90628F490936100809360002EC04F
S1130FA06801B2E0CB0ED11CC6010E940E02F8010A
S1130FB084899589892B21F0C8010C960E940E0220
S1130FC0D80156968C9190910A05981710F4809345
S1130FD00A05D89FC0011124B601895C9A4F0E946A
S1130FE0B501E0915B05F0915C05D80156969C91A2
S1130FF08689981708F4B4CFC1E0B2CFE0915B05BD
S1131000F0915C05E689B9E0EB9FF0011124E95CFD
S1131010FA4F8081823040F0C1E006C0809108051B
S11310208F5F80930805C0E0809107058111C1E0BE
S11310308C2FDF91CF911F910F91FF90EF90DF9054
S1131040CF900895EF92FF920F931F93CF93DF9366
S11310500FB6F8940F928091040581508093040593
S113106080910405882311F080E053C080910D0520
S11310708823D1F389E0F82EEE24E39480911805B7
S1131080882351F1E0911D05F0911E05C681D78199
S1131090CE010C960E940E028E010E5F1F4FC801F6
S11310A00E940E028E8990910A05981710F480937D
S11310B00A05F89EC0011124B801895C9A4F0E9468
S11310C0B501E0915B05F0915C059E8986899817CE
S11310D0A8F2E0920705D2CF80910805811109C0DA
S11310E080910705813009F0BFCF0E94D20281E0D0
S11310F010C0C1E080910805882391F30E94730712
S11311008111C093070580910805815080930805DB
S1131110F1CF0F900FBEDF91CF911F910F91FF90F0
S1131120EF900895CF93DF93EC01892B19F40E947B
S1131130D20216C00E946D0780910B0590910C0598
S1131140C80FD91F80915B0590915C0502960E949F
S11311500E02CE010E940D060E942208882339F354
S1131160DF91CF91089580910E05882349F10E9463
S11311706D07C0910F050E942208CC23A1F30FB67E
S1131180F8940F92E0911405F0911505C681D7816A
S1131190CE0102960E940E0280910D05815080932B
S11311A00D0580910E05815080930E050F900FBEA2
S11311B08F89988D0E94A201CE010E94A201D3CFF3
S11311C080913705823078F20E94D202CCCF809190
S11311D00405882321F081E0809307050895109287
S11311E0070599E0E0910A059E9FF0011124E95C4E
S11311F0FA4F8081811106C080910A058150809345
S11312000A05F0CF80910A0590E049E0489F9001DB
S1131210499F300D1124F901E95CFA4FA181B28193
S113122012960D90BC91A02DB283A183265C3A4FF7
S1131230A217B30731F412962D913C911397328380
S1131240218329E0289FF001299FF00D1124E95CF6
S1131250FA4F0180F281E02D8681978190935C059D
S113126080935B050895CF93DF93EB0160915B0559
S113127070915C05645F7F4F0E94D60180915B058D
S113128090915C0502960E940E0280910B0590914C
S11312900C058C0F9D1FDF91CF910C940D060F93BD
S11312A01F93CF93DF93DC011596ED91FC91169774
S11312B0C681D7818E01045F1F4FC8010E940E02B0
S11312C080910405811114C00A501109C8010E94BB
S11312D00E028E8990910A05981710F480930A05DE
S11312E0B9E08B9FC0011124B801895C9A4F03C0F7
S11312F0B80188E195E00E94B501E0915B05F091A9
S11313005C059E898689891720F481E0809307050E
S113131001C080E0DF91CF911F910F91089520913A
S11313200605FC01208320910B0530910C053283C6
S1131330218308950FB6F8940F92E0910B05F09174
S11313400C0540910605DC015C9111962D913C91B0
S11313501297541719F0E217F307A0F4DB014D912B
S11313605C91DF01A21BB30BA417B50758F4DB0192
S11313702E1B3F0B240F351F2D933C930E948F0986
S113138080E001C081E00F900FBE089581E080935A
S1131390070508950F931F93CF93DF93FC01892BC7
S11313A009F44CC08689A0915B05B0915C05569602
S11313B09C91891708F042C02485358537FD0CC0FF
S11313C0A0915B05B0915C0556969C9124E030E0B9
S11313D0291B31093587248729E0829FC001112404
S11313E0895C9A4F228533852817390701F58F01C7
S11313F0EF012296CE010E940E02E0915B05F0916E
S11314005C058689F801868B90910A05981710F47B
S113141080930A05F9E08F9FC0011124BE01895C05
S11314209A4FDF91CF911F910F910C94B501A09128
S11314305B05B0915C0556968C91868BDF91CF91BC
S11314401F910F9108950F931F93CF93DF93FC0186
S1131450892B11F480E02CC086A5815086A72689AB
S113146095A52917B9F38111F5CFEF018F010E5F0F
S11314701F4FC8010E940E028DA58E8B482F50E08D
S113148024E030E0241B350B3D872C8790910A051E
S1131490981710F480930A0529E0249FC001259F22
S11314A0900D1124B801895C9A4F0E94B50181E026
S11314B0DF91CF911F910F91089580915B059091D9
S11314C05C05892B39F0E0915B05F0915C0586A5FC
S11314D08F5F86A780915B0590915C0508950E94BB
S11314E07200882359F020E040E050E060E070E0B2
S11314F080915D0590915E050E949D0482E390E0D9
S11315000E949208ECCF20E048EE53E060E070E0E7
S113151080915D0590915E050E943705882399F3BB
S113152085E00E944900EFCF84E00E9449008CE2EC
S113153091E00E949208F8CF0E9460000E94370157
S113154040E750E061E081E00E9466010C94650090
S1131550AF92BF92CF92DF92EF92FF920F930E94CD
S11315609C0A43E060E081E00E94720490935E056F
S113157080935D05A12CB12CC12CD12CE12CF12C34
S113158002E020E030E044E650E060E070E08FE606
S11315909AE00E94450603E020E030E044E650E093
S11315A060E070E083E89AE00E94450601E020E0F4
S11315B030E044E650E060E070E084E99AE00E94A4
S11315C045060E943B0780E090E00F91FF90EF906A
S11315D0DF90CF90BF90AF900895FB01DC0102C073
S11315E001900D9241505040D8F70895F894FFCFE0
S11315F0FFFF09080706050403020149444C45009E
S113160053797374656D20496E6974696174656496
S10516100000D4
S9030000FC
