:100000000C942A000C9447000C9447000C94470071
:100010000C9447000C9447000C9447000C946A031E
:100020000C9447000C9447000C9447000C94470034
:100030000C9447000C9447000C9447000C94470024
:100040000C9447000C9447000C9447000C94470014
:100050000C94470011241FBECFE5D8E0DEBFCDBF12
:1000600010E0A0E6B0E0E0EFF5E102C005900D92EF
:10007000A237B107D9F725E0A2E7B0E001C01D9291
:10008000AF34B207E1F70E94910A0C94F60A0C947F
:1000900000009BB3809598239BBB08959AB3982B3F
:1000A0009ABB0C94490080E70C94490080E70E94B9
:1000B0004E000C94530084B38C6184BB85B38C6177
:1000C00085BB81B38F7181BB82B3806E82BB089583
:1000D000DA9A85E08A95F1F70000DA980895CF93CF
:1000E000C82FDB9888B3887F88BB98B38C2F829504
:1000F0008F70282F2770922B98BBC49898B3880FC5
:100100008071892B88BB0E94680088B3887F88BB78
:1001100088B39C2F9770892B88BBC49888B3CC0F69
:10012000C071C82BC8BB0E94680085ED8A95F1F7A5
:100130000000CF91089590E4899F600D1124862FCF
:10014000815C0C946F00CF93C82FDB9A88B3887FB3
:1001500088BB98B38C2F82958F70282F2770922B95
:1001600098BBC49898B3880F8071892B88BB0E9474
:10017000680088B3887F88BB88B39C2F9770892BD1
:1001800088BBC49888B3CC0FC071C82BC8BB0E9471
:10019000680085ED8A95F1F70000CF91089582E01F
:1001A0000E946F008FE19EE40197F1F700C000000C
:1001B000089581E00E946F008FE19EE40197F1F7BE
:1001C00000C00000089587B3876087BBBC9AD39AAC
:1001D000D29A2FEF89EF90E0215080409040E1F7D4
:1001E00000C000000E94CF0088E20E946F008CE0F7
:1001F0000E946F0086E00E946F000C94D9000F935C
:100200001F93CF938C01C0E0F801EC0FF11D8081AA
:10021000882321F00E94A300CF5FF6CFCF911F91DA
:100220000F910895CF93DF93EA010E949B00CE01C6
:10023000DF91CF910C94FF00DC01CB0124E0880F0B
:10024000991FAA1FBB1F2A95D1F79C01AD01215010
:1002500031094109510960E074E284EF90E00E94A5
:10026000CB0A832F992780BD29B988E18AB986E80E
:1002700080BD08955D9BFECF8CB908955F9B05C03E
:100280002CB1FC01208381E0089580E00895CF9394
:10029000DF93EC018991882319F00E943A01FACF8B
:1002A000DF91CF910895CF93DF93EC010E94500727
:1002B0008091720090917300892B31F487E790E070
:1002C00090937300809372002091740030917500B8
:1002D000C9018C0F9D1F8D3744E0940770F42817D7
:1002E000390758F4C0917200D0917300C20FD31F28
:1002F000909375008093740002C0C0E0D0E00E942B
:100300000508CE01DF91CF9108950895FC01039671
:10031000928381832FEF3FEF3483238396838583FA
:100320009087878310820895FC01118610860895B6
:10033000CF93DF939C01FB01DC011196CD91DC9101
:100340001297D383C2838C819D81958384838C8112
:100350009D81DC0113967C936E9312977D836C8351
:1003600031872087F90180818F5F8083DF91CF9172
:1003700008950F931F93CF93DF938C01FB0180812E
:1003800091818F3F2FEF920721F4E801AF81B8856B
:100390000EC0D801139612962D913C911397E90146
:1003A000488159818417950710F0D901F4CF12962E
:1003B0008D919C91139793838283EC01FD83EC8351
:1003C000B583A4831396FC93EE931297118700874D
:1003D000F80180818F5F8083DF91CF911F910F9112
:1003E0000895CF93DF93FC01A085B185828193812D
:1003F00024813581EC013D832C83C481D5819B838D
:100400008A8311968D919C911297E817F90721F430
:100410001296DC93CE931197118610868C918150A1
:100420008C93DF91CF91089531E1FC0130833197B6
:1004300022E220833197A3E3A08331976083319731
:10044000708331971082319760E860833197108212
:10045000319762E06083319763E06083319764E0B5
:100460006083319765E06083319766E06083319700
:1004700067E06083319768E06083319769E060836B
:10048000319760E1608331973083319732E1308377
:10049000319733E13083319734E13083319735E15F
:1004A0003083319736E13083319737E130833197AC
:1004B00038E13083319739E13083319730E230834E
:1004C000319731E2308331972083319723E22083C3
:1004D0003197408331975083319726E220833197BB
:1004E00027E22083319728E22083319729E2208375
:1004F000319720E32083319721E320838697089565
:100500001BBC89EF8ABD8BE08EBD89B7806189BF36
:10051000A0914B05B0914C05CD91CDBFDD91DEBFD3
:10052000FF91EF91DF91CF91BF91AF919F918F910B
:100530007F916F915F914F913F912F911F910F91FB
:10054000FF90EF90DF90CF90BF90AF909F908F90F3
:100550007F906F905F904F903F902F901F900F90E3
:100560000FBE0F90089581E008950F920FB6F89492
:100570000F921F9211242F923F924F925F926F928F
:100580007F928F929F92AF92BF92CF92DF92EF9223
:10059000FF920F931F932F933F934F935F936F930C
:1005A0007F938F939F93AF93BF93CF93DF93EF93FB
:1005B000FF93A0914B05B0914C050DB60D920EB670
:1005C0000D920E94A908A0914B05B0914C05CD91C8
:1005D000CDBFDD91DEBFFF91EF91DF91CF91BF9154
:1005E000AF919F918F917F916F915F914F913F91CB
:1005F0002F911F910F91FF90EF90DF90CF90BF90C0
:10060000AF909F908F907F906F905F904F903F90B2
:100610002F901F900F900FBE0F9008950F920FB65E
:10062000F8940F921F9211242F923F924F925F9253
:100630006F927F928F929F92AF92BF92CF92DF92F2
:10064000EF92FF920F931F932F933F934F935F93DC
:100650006F937F938F939F93AF93BF93CF93DF93CA
:10066000EF93FF93A0914B05B0914C050DB60D9201
:100670000EB60D920E94560781110E94A908A09102
:100680004B05B0914C05CD91CDBFDD91DEBFFF9103
:10069000EF91DF91CF91BF91AF919F918F917F911A
:1006A0006F915F914F913F912F911F910F91FF900B
:1006B000EF90DF90CF90BF90AF909F908F907F9002
:1006C0006F905F904F903F902F901F900F900FBEB4
:1006D0000F9008950E940E0318951F93CF93DF93F8
:1006E000EC01142F4C8D41110CC088819981892B0C
:1006F00009F041C08A819B810E94E5091B821A8210
:100700003BC050E0111115C08C819D810E94ED0A03
:100710002C8D8C819D81820F911D9D838C832A81DC
:100720003B818217930738F1888199819D838C835F
:1007300022C08E819F810E94ED0A8C8D90E0919560
:10074000819591092E813F81280F391F3F832E8388
:10075000488159812417350730F42A813B81820F63
:10076000931F9F838E83123031F48A8D882319F072
:100770008A8D81508A8F80E09A8D9F5F9A8FDF915A
:10078000CF911F910895FC01CB01448D4423A1F02A
:1007900050E026813781240F351F378326836281FD
:1007A00073812617370720F0208131813783268314
:1007B000668177810C94ED0A08950F931F93CF9370
:1007C000DF93EC010FB6F8940F928C010F5E1F4F70
:1007D0008E8D18166CF48989882351F0C8010E9407
:1007E000110981110E9488098E8D81508E8FF0CF62
:1007F0008FEF8E8F0F900FBE0FB6F8940F928E0171
:10080000085F1F4F8D8D18166CF48885882351F072
:10081000C8010E94110981110E9488098D8D8150A3
:100820008D8FF0CF8FEF8D8F0F900FBEDF91CF9117
:100830001F910F910895CF93DF93EC010FB6F894B9
:100840000F92288139819B8D4C8D949FC00111247A
:10085000F901E80FF91FFB83EA831A8E3D832C838D
:10086000841B9109820F931F9F838E838FEF8D8F3F
:100870008E8F61110CC08885882389F0CE0108967F
:100880000E941109813059F40E94B50208C0CE01BE
:1008900008960E948601CE0141960E9486010F9023
:1008A0000FBE81E0DF91CF9108950F931F93CF93F7
:1008B000DF938823E9F0062F182F8FE190E00E9444
:1008C0005301EC01892BA1F0109FC0011124019666
:1008D0000E94530199838883892B39F01B8F0C8FD9
:1008E00061E0CE010E941B0405C0CE010E9485017B
:1008F000C0E0D0E0CE01DF91CF911F910F9108951C
:10090000AF92BF92CF92DF92FF920F931F93CF933C
:10091000DF9300D000D01F92CDB7DEB78C016B0102
:100920005D834C83F22E80E0580198E0A90EB11C43
:100930000FB6F8940F92F801228D938D291718F0B5
:10094000F2E0FF1218C04F2DB601C8010E946D03DE
:10095000F8019189992349F0C80141960E94110933
:10096000813029F40E94B50202C08111FBCF0F90A3
:100970000FBE81E050C02C813D81232B19F40F90D4
:100980000FBE48C0811104C0CE0101960E945109DA
:100990000F900FBE0E9450070FB6F8940F92F80107
:1009A000858D8F3F09F4158EF801868D8F3F09F4F0
:1009B000168E0F900FBEBE016C5F7F4FCE01019669
:1009C0000E945C09811121C00FB6F8940F92F801C2
:1009D000928D0F900FBE838D981311C06C817D8115
:1009E000C5010E94F508C8010E94DD030E940508A8
:1009F000882311F081E09CCF0E94B502FBCFC80193
:100A00000E94DD030E940508F5CFC8010E94DD03A6
:100A10000E94050880E00F900F900F900F900F90AC
:100A2000DF91CF911F910F91FF90DF90CF90BF90FA
:100A3000AF900895AF92BF92DF92EF92FF920F9323
:100A40001F93CF93DF9300D000D01F92CDB7DEB7B6
:100A50008C017B015D834C83D22E80E0580191E1B3
:100A6000A90EB11C0FB6F8940F92F801928D99233C
:100A700089F1A680B780B701C8010E94C303F801BD
:100A8000D11019C0828D8150828F80819181892BF4
:100A900029F40E941F0AF80193838283F80180855C
:100AA0008823A1F0C80108960E941109813071F4D1
:100AB0000E94B5020BC0B782A6828189882331F0DB
:100AC000C80141960E9411098111F2CF0F900FBE0B
:100AD00081E05CC02C813D81232B19F40F900FBE67
:100AE00054C0811104C0CE0101960E9451090F909B
:100AF0000FBE0E9450070FB6F8940F92F801858D33
:100B00008F3F09F4158EF801868D8F3F09F4168EFC
:100B10000F900FBEBE016C5F7F4FCE0101960E9409
:100B20005C0981112DC00FB6F8940F92F801828DE7
:100B30000F900FBE81111EC080819181892B49F4D5
:100B40000FB6F8940F92828193810E948C090F90C6
:100B50000FBE6C817D81C5010E94F508C8010E940D
:100B6000DD030E940508882311F081E07BCF0E94FD
:100B7000B502FBCFC8010E94DD030E940508F5CF36
:100B8000C8010E94DD030E94050880E00F900F90CD
:100B90000F900F900F90DF91CF911F910F91FF90C9
:100BA000EF90DF90BF90AF900895E0911305F09122
:100BB00014058081811103C08FEF9FEF0CC0E0917D
:100BC0001305F09114050580F681E02D0680F7816C
:100BD000E02D82819381909361008093600008955D
:100BE000CF93DF93E0914B05F0914C059383828383
:100BF0002091FB043091FC048217930770F46091FC
:100C00004B0570914C0580911105909112056E5F16
:100C10007F4FDF91CF910C94B901EC0160914B05AE
:100C200070914C0580911305909114056E5F7F4F74
:100C30000E94B9018091600090916100C817D907A6
:100C400020F4D0936100C0936000DF91CF910895AC
:100C50005F926F927F928F929F92AF92BF92CF924C
:100C6000DF92EF92FF920F931F93CF93DF934C018C
:100C7000162F572E5A0139018FE290E00E9453013E
:100C8000EC01892B79F0C114D10421F4C5010E9433
:100C9000530101C0C601988F8F8B009729F4CE01B4
:100CA0000E9485018FEFBAC0650121E0C21AD10808
:100CB000C80ED91EBE01675E7F4FE12FF52DCF0113
:100CC00044969F014191DB014D93BD01D9012C91C7
:100CD000222319F0E817F907A1F71CA6102F0430FA
:100CE00008F013E01E8B1DA71EA65E01B2E0AB0E3E
:100CF000B11CC5010E949401CE010C960E94940182
:100D0000D987C88784E090E0811B91099D878C87F3
:100D1000DB8BCA8BA301B401C6010E941402998324
:100D20008883E114F10419F0F701D183C0830FB671
:100D3000F8940F928091FD048F5F8093FD04809161
:100D40004B0590914C05892BA9F5D0934C05C09388
:100D50004B058091FD048130E1F587E295E00E942A
:100D6000860180E395E00E94860189E395E00E9478
:100D7000860182E495E00E9486018EE195E00E9462
:100D8000860185E195E00E94860188E095E00E9459
:100D900086018FEF94E00E9486018EE195E09093AA
:100DA00014058093130585E195E0909312058093D7
:100DB00011050FC08091F90481110BC0E0914B0522
:100DC000F0914C058689081720F0D0934C05C0930C
:100DD0004B058091F5048F5F8093F5048E89909187
:100DE000FA04981710F48093FA04F9E08F9FC00179
:100DF0001124B501895D9A4F0E9498010F900FBE92
:100E00008091F904882349F0E0914B05F0914C055D
:100E10008689801710F40E94B50281E0DF91CF919E
:100E20001F910F91FF90EF90DF90CF90BF90AF9008
:100E30009F908F907F906F905F900895AF92BF9238
:100E4000CF92DF92EF92FF920F93A12CB12CC12C85
:100E5000D12CE12CF12C00E020E030E045E550E021
:100E600062E670E085E798E00E942806813081F410
:100E7000F8948093F9041092FC041092FB040F91F3
:100E8000FF90EF90DF90CF90BF90AF900C948002D6
:100E90000F91FF90EF90DF90CF90BF90AF900895AB
:100EA0008091F4048F5F8093F4040895CF92DF92D1
:100EB000EF92FF920F931F93CF93DF938091F404EF
:100EC00081118FC08091FB049091FC040196909356
:100ED000FC048093FB04E090FB04F090FC04E1141C
:100EE000F104B9F480911305909114052091110536
:100EF0003091120530931405209313059093120539
:100F0000809311058091F6048F5F8093F6040E9410
:100F1000D5058091600090916100C0E0E816F90667
:100F200008F44FC0D9E0E0911305F09114058081D9
:100F3000811103C08FEF9FEF11C0E0911305F09175
:100F400014050580F681E02D06811781D8011296DF
:100F50008D919C911397E816F90628F490936100FF
:100F6000809360002EC06801B2E0CB0ED11CC60198
:100F70000E94F101F80184899589892B21F0C8012B
:100F80000C960E94F101D80156968C919091FA042A
:100F9000981710F48093FA04D89FC0011124B60169
:100FA000895D9A4F0E949801E0914B05F0914C05A4
:100FB000D80156969C918689981708F4B4CFC1E061
:100FC000B2CFE0914B05F0914C05E689B9E0EB9F7B
:100FD000F0011124E95DFA4F8081823040F0C1E0D8
:100FE00006C08091F8048F5F8093F804C0E0809180
:100FF000F7048111C1E08C2FDF91CF911F910F91E8
:10100000FF90EF90DF90CF900895EF92FF920F93B3
:101010001F93CF93DF930FB6F8940F928091F4044F
:1010200081508093F4048091F404882311F080E0CF
:1010300053C08091FD048823D1F389E0F82EEE247B
:10104000E39480910805882351F1E0910D05F0911A
:101050000E05C681D781CE010C960E94F1018E014A
:101060000E5F1F4FC8010E94F1018E899091FA0412
:10107000981710F48093FA04F89EC0011124B80167
:10108000895D9A4F0E949801E0914B05F0914C05C3
:101090009E8986899817A8F2E092F704D2CF8091B2
:1010A000F804811109C08091F704813009F0BFCFA5
:1010B0000E94B50281E010C0C1E08091F80488234D
:1010C00091F30E9456078111C093F7048091F804B0
:1010D00081508093F804F1CF0F900FBEDF91CF9134
:1010E0001F910F91FF90EF9008958091FE04882347
:1010F00049F10E945007C091FF040E940508CC23CB
:10110000A1F30FB6F8940F92E0910405F091050554
:10111000C681D781CE0102960E94F1018091FD0423
:1011200081508093FD048091FE0481508093FE04E1
:101130000F900FBE8F89988D0E948501CE010E946D
:101140008501D3CF80912705823078F20E94B502C5
:10115000CCCF8091F404882321F081E08093F704C0
:1011600008951092F70499E0E091FA049E9FF0012F
:101170001124E95DFA4F8081811106C08091FA0443
:1011800081508093FA04F0CF8091FA0490E049E016
:10119000489F9001499F300D1124F901E95DFA4FF4
:1011A000A181B28112960D90BC91A02DB283A18332
:1011B000265D3A4FA217B30731F412962D913C9158
:1011C00013973283218329E0289FF001299FF00D96
:1011D0001124E95DFA4F0180F281E02D868197812B
:1011E00090934C0580934B050895CF93DF93EB01CB
:1011F00060914B0570914C05645F7F4F0E94B9016F
:1012000080914B0590914C0502960E94F1018091CE
:10121000FB049091FC048C0F9D1FDF91CF910C94E7
:10122000F0050F931F93CF93DF93DC011596ED919B
:10123000FC911697C681D7818E01045F1F4FC801AC
:101240000E94F1018091F404811114C00A50110927
:10125000C8010E94F1018E899091FA04981710F448
:101260008093FA04B9E08B9FC0011124B801895D15
:101270009A4F03C0B80188E095E00E949801E09180
:101280004B05F0914C059E898689891720F481E0F1
:101290008093F70401C080E0DF91CF911F910F91FF
:1012A00008952091F604FC0120832091FB043091E5
:1012B000FC043283218308950FB6F8940F92E091D5
:1012C000FB04F091FC044091F604DC015C91119662
:1012D0002D913C911297541719F0E217F307A0F4DF
:1012E000DB014D915C91DF01A21BB30BA417B50785
:1012F00058F4DB012E1B3F0B240F351F2D933C931D
:101300000E94510980E001C081E00F900FBE089556
:1013100081E08093F70408950F931F93CF93DF9399
:10132000FC01892B09F44CC08689A0914B05B09132
:101330004C0556969C91891708F042C02485358546
:1013400037FD0CC0A0914B05B0914C0556969C9171
:1013500024E030E0291B31093587248729E0829F6A
:10136000C0011124895D9A4F2285338528173907DA
:1013700001F58F01EF012296CE010E94F101E0916B
:101380004B05F0914C058689F801868B9091FA0403
:10139000981710F48093FA04F9E08F9FC00111248C
:1013A000BE01895D9A4FDF91CF911F910F910C94EF
:1013B0009801A0914B05B0914C0556968C91868B67
:1013C000DF91CF911F910F9108950F931F93CF93AA
:1013D000DF93FC01892B11F480E02CC086A581509D
:1013E00086A7268995A52917B9F38111F5CFEF01B5
:1013F0008F010E5F1F4FC8010E94F1018DA58E8BDA
:10140000482F50E024E030E0241B350B3D872C872B
:101410009091FA04981710F48093FA0429E0249F1D
:10142000C001259F900D1124B801895D9A4F0E943B
:10143000980181E0DF91CF911F910F9108958091E4
:101440004B0590914C05892B39F0E0914B05F091BB
:101450004C0586A58F5F86A780914B0590914C0522
:101460000895CF93DF93CDB7DEB72C970FB6F894DE
:10147000DEBF0FBECDBF1C8610E0CE010C960E94D1
:101480003E018823D1F32C85812F90E0E1E0F0E04C
:10149000EC0FFD1FE80FF91F21110DC010824FEF57
:1014A0005FEFBE016F5F7F4F80914D0590914E05BC
:1014B0000E948004E1CF20831F5FDFCFCF93DF93B3
:1014C000CDB7DEB72B970FB6F894DEBF0FBECDBFFA
:1014D00020E04FEF5FEFBE016F5F7F4F80914D05C2
:1014E00090914E050E941A05882391F3CE01019632
:1014F0000E944701EDCF0E9456000E94E30047E69C
:1015000050E061E081E00E9412010E945B0060E80F
:1015100075E280E090E00E941C0187E690E00C9468
:101520004701AF92BF92CF92DF92EF92FF920F935B
:101530000E947B0A40E06BE085E00E945504909396
:101540004E0580934D05A12CB12CC12CD12CE12C42
:10155000F12C01E020E030E044E650E060E070E093
:1015600081E39AE00E94280602E020E030E044E6B1
:1015700050E060E070E08EE59AE00E9428060E944C
:101580001E0780E090E00F91FF90EF90DF90CF90EA
:10159000BF90AF900895A1E21A2EAA1BBB1BFD01BC
:1015A0000DC0AA1FBB1FEE1FFF1FA217B307E40742
:1015B000F50720F0A21BB30BE40BF50B661F771F9A
:1015C000881F991F1A9469F760957095809590957A
:1015D0009B01AC01BD01CF010895FB01DC0102C0FC
:1015E00001900D9241505040D8F70895F894FFCFE4
:1015F000FFFF49444C4500526573204170703A200A
:021600000000E8
:00000001FF
