:100000000C942A000C9447000C9447000C94470071
:100010000C9447000C9447000C9447000C94610327
:100020000C9447000C9447000C9447000C94470034
:100030000C9447000C9447000C9447000C94470024
:100040000C9447000C9447000C9447000C94470014
:100050000C94470011241FBECFE5D8E0DEBFCDBF12
:1000600010E0A0E6B0E0E2EAF5E102C005900D92F2
:10007000A439B107D9F725E0A4E9B0E001C01D9289
:10008000A137B207E1F70E946C0A0C94CF0A0C94D6
:1000900000009BB3809598239BBB08959AB3982B3F
:1000A0009ABB0C94490080E70C94490080E70E94B9
:1000B0004E000C94530084B38C6184BB85B38C6177
:1000C00085BB81B38F7181BB82B3806E82BB089583
:1000D000DA9A85E08A95F1F70000DA980895CF93CF
:1000E000C82FDB9888B3887F88BB98B38C2F829504
:1000F0008F70282F2770922B98BBC49898B3880FC5
:100100008071892B88BB0E94680088B3887F88BB78
:1001100088B39C2F9770892B88BBC49888B3CC0F69
:10012000C071C82BC8BB0E94680085ED8A95F1F7A5
:100130000000CF91089590E4899F600D1124862FCF
:10014000815C0C946F00CF93C82FDB9A88B3887FB3
:1001500088BB98B38C2F82958F70282F2770922B95
:1001600098BBC49898B3880F8071892B88BB0E9474
:10017000680088B3887F88BB88B39C2F9770892BD1
:1001800088BBC49888B3CC0FC071C82BC8BB0E9471
:10019000680085ED8A95F1F70000CF91089582E01F
:1001A0000E946F008FE19EE40197F1F700C000000C
:1001B000089581E00E946F008FE19EE40197F1F7BE
:1001C00000C00000089587B3876087BBBC9AD39AAC
:1001D000D29A2FEF89EF90E0215080409040E1F7D4
:1001E00000C000000E94CF0088E20E946F008CE0F7
:1001F0000E946F0086E00E946F000C94D9000F935C
:100200001F93CF938C01C0E0F801EC0FF11D8081AA
:10021000882321F00E94A300CF5FF6CFCF911F91DA
:100220000F910895CF93DF93EA010E949B00CE01C6
:10023000DF91CF910C94FF00DC01CB0124E0880F0B
:10024000991FAA1FBB1F2A95D1F79C01AD01215010
:1002500031094109510960E074E284EF90E00E94A5
:10026000A40A832F992780BD29B988E18AB986E835
:1002700080BD08955D9BFECF8CB90895CF93DF9329
:10028000EC018991882319F00E943A01FACFDF919D
:10029000CF910895CF93DF93EC010E940E078091D8
:1002A000940090919500892B31F489E990E0909326
:1002B0009500809394002091960030919700C90199
:1002C0008C0F9D1F8D3744E0940770F42817390771
:1002D00058F4C0919400D0919500C20FD31F909311
:1002E00097008093960002C0C0E0D0E00E94C30750
:1002F000CE01DF91CF9108950895FC01039692837A
:1003000081832FEF3FEF3483238396838583908708
:10031000878310820895FC01118610860895CF937B
:10032000DF939C01FB01DC011196CD91DC911297CA
:10033000D383C2838C819D81958384838C819D81AD
:10034000DC0113967C936E9312977D836C833187C7
:100350002087F90180818F5F8083DF91CF9108959D
:100360000F931F93CF93DF938C01FB0180819181C9
:100370008F3F2FEF920721F4E801AF81B8850EC0BF
:10038000D801139612962D913C911397E90148815B
:1003900059818417950710F0D901F4CF12968D91E9
:1003A0009C91139793838283EC01FD83EC83B58347
:1003B000A4831396FC93EE93129711870087F8019C
:1003C00080818F5F8083DF91CF911F910F9108957E
:1003D000CF93DF93FC01A085B18582819381248135
:1003E0003581EC013D832C83C481D5819B838A8335
:1003F00011968D919C911297E817F90721F41296A6
:10040000DC93CE931197118610868C9181508C933A
:10041000DF91CF91089531E1FC013083319722E2E1
:1004200020833197A3E3A083319760833197708352
:1004300031971082319760E860833197108231974D
:1004400062E06083319763E06083319764E06083AA
:10045000319765E06083319766E06083319767E0AC
:100460006083319768E06083319769E060833197FA
:1004700060E1608331973083319732E13083319787
:1004800033E13083319734E13083319735E1308384
:10049000319736E13083319737E13083319738E156
:1004A0003083319739E13083319730E230833197AF
:1004B00031E2308331972083319723E220833197D3
:1004C000408331975083319726E22083319727E28A
:1004D0002083319728E22083319729E220833197C6
:1004E00020E32083319721E32083869708951BBC66
:1004F00089EF8ABD8BE08EBD89B7806189BFA091ED
:100500006D05B0916E05CD91CDBFDD91DEBFFF9140
:10051000EF91DF91CF91BF91AF919F918F917F919B
:100520006F915F914F913F912F911F910F91FF908C
:10053000EF90DF90CF90BF90AF909F908F907F9083
:100540006F905F904F903F902F901F900F900FBE35
:100550000F90089581E008950F920FB6F8940F92CE
:100560001F9211242F923F924F925F926F927F922F
:100570008F929F92AF92BF92CF92DF92EF92FF92B3
:100580000F931F932F933F934F935F936F937F939B
:100590008F939F93AF93BF93CF93DF93EF93FF938B
:1005A000A0916D05B0916E050DB60D920EB60D922F
:1005B0000E948808A0916D05B0916E05CD91CDBFC8
:1005C000DD91DEBFFF91EF91DF91CF91BF91AF91B0
:1005D0009F918F917F916F915F914F913F912F915B
:1005E0001F910F91FF90EF90DF90CF90BF90AF9051
:1005F0009F908F907F906F905F904F903F902F9043
:100600001F900F900FBE0F9008950F920FB6F894A1
:100610000F921F9211242F923F924F925F926F92EE
:100620007F928F929F92AF92BF92CF92DF92EF9282
:10063000FF920F931F932F933F934F935F936F936B
:100640007F938F939F93AF93BF93CF93DF93EF935A
:10065000FF93A0916D05B0916E050DB60D920EB68B
:100660000D920E94140781110E948808A0916D05C7
:10067000B0916E05CD91CDBFDD91DEBFFF91EF91C1
:10068000DF91CF91BF91AF919F918F917F916F91AA
:100690005F914F913F912F911F910F91FF90EF909C
:1006A000DF90CF90BF90AF909F908F907F906F9092
:1006B0005F904F903F902F901F900F900FBE0F9024
:1006C00008950E94050318951F93CF93DF93EC01C3
:1006D000142F4C8D41110CC088819981892B09F010
:1006E00041C08A819B810E94C4091B821A823BC03F
:1006F00050E0111115C08C819D810E94C60A2C8D7D
:100700008C819D81820F911D9D838C832A813B81E9
:100710008217930738F1888199819D838C8322C049
:100720008E819F810E94C60A8C8D90E09195819563
:1007300091092E813F81280F391F3F832E834881E5
:1007400059812417350730F42A813B81820F931F8A
:100750009F838E83123031F48A8D882319F08A8D1D
:1007600081508A8F80E09A8D9F5F9A8FDF91CF9121
:100770001F910895FC01CB01448D4423A1F050E06A
:1007800026813781240F351F378326836281738149
:100790002617370720F02081318137832683668131
:1007A00077810C94C60A08950F931F93CF93DF931C
:1007B000EC010FB6F8940F928C010F5E1F4F8E8DD7
:1007C00018166CF48989882351F0C8010E94F0083A
:1007D00081110E9467098E8D81508E8FF0CF8FEF2F
:1007E0008E8F0F900FBE0FB6F8940F928E01085F98
:1007F0001F4F8D8D18166CF48885882351F0C80121
:100800000E94F00881110E9467098D8D81508D8FA3
:10081000F0CF8FEF8D8F0F900FBEDF91CF911F9193
:100820000F910895AF92BF92CF92DF92FF920F93F4
:100830001F93CF93DF9300D000D01F92CDB7DEB7C8
:100840008C016B015D834C83F22E80E0580198E0AF
:10085000A90EB11C0FB6F8940F92F801228D938D5A
:10086000291718F0F2E0FF1218C04F2DB601C80189
:100870000E946403F8019189992349F0C8014196C7
:100880000E94F008813029F40E94AC0202C081115C
:10089000FBCF0F900FBE81E050C02C813D81232BF8
:1008A00019F40F900FBE48C0811104C0CE0101960B
:1008B0000E9430090F900FBE0E940E070FB6F894E9
:1008C0000F92F801858D8F3F09F4158EF801868D02
:1008D0008F3F09F4168E0F900FBEBE016C5F7F4FE5
:1008E000CE0101960E943B09811121C00FB6F894F8
:1008F0000F92F801928D0F900FBE838D981311C047
:100900006C817D81C5010E94D408C8010E94D40376
:100910000E94C307882311F081E09CCF0E94AC02A3
:10092000FBCFC8010E94D4030E94C307F5CFC801C2
:100930000E94D4030E94C30780E00F900F900F9095
:100940000F900F90DF91CF911F910F91FF90DF904B
:10095000CF90BF90AF900895CF93DF938FE190E059
:100960000E944A01EC01892BF9F01B821A8219823C
:1009700018821D821C821F821E821A8E81E08B8F3C
:100980001C8E8FEF8D8F8E8FCE0108960E947D0179
:10099000CE0141960E947D0120E040E050E060E001
:1009A00070E0CE010E941204CE01DF91CF91089534
:1009B000AF92BF92DF92EF92FF920F931F93CF936C
:1009C000DF9300D000D01F92CDB7DEB78C017B0142
:1009D0005D834C83D22E80E0580191E1A90EB11CB9
:1009E0000FB6F8940F92F801928D992389F1A680A1
:1009F000B780B701C8010E94BA03F801D11019C02D
:100A0000828D8150828F80819181892B29F40E946F
:100A1000FE09F80193838283F80180858823A1F081
:100A2000C80108960E94F008813071F40E94AC025F
:100A30000BC0B782A6828189882331F0C801419614
:100A40000E94F0088111F2CF0F900FBE81E05CC0D0
:100A50002C813D81232B19F40F900FBE54C08111BE
:100A600004C0CE0101960E9430090F900FBE0E9473
:100A70000E070FB6F8940F92F801858D8F3F09F499
:100A8000158EF801868D8F3F09F4168E0F900FBEDC
:100A9000BE016C5F7F4FCE0101960E943B09811120
:100AA0002DC00FB6F8940F92F801828D0F900FBEF3
:100AB00081111EC080819181892B49F40FB6F89471
:100AC0000F92828193810E946B090F900FBE6C81FF
:100AD0007D81C5010E94D408C8010E94D4030E94F0
:100AE000C307882311F081E07BCF0E94AC02FBCFCB
:100AF000C8010E94D4030E94C307F5CFC8010E9419
:100B0000D4030E94C30780E00F900F900F900F90C6
:100B10000F90DF91CF911F910F91FF90EF90DF9099
:100B2000BF90AF900895E0913505F0913605808132
:100B3000811103C08FEF9FEF0CC0E0913505F0915C
:100B400036050580F681E02D0680F781E02D828153
:100B5000938190936100809360000895CF93DF9319
:100B6000E0916D05F0916E059383828320911D05C0
:100B700030911E058217930770F460916D05709196
:100B80006E0580913305909134056E5F7F4FDF9144
:100B9000CF910C94B001EC0160916D0570916E05E0
:100BA00080913505909136056E5F7F4F0E94B001B0
:100BB0008091600090916100C817D90720F4D0930C
:100BC0006100C0936000DF91CF9108955F926F92B2
:100BD0007F928F929F92AF92BF92CF92DF92EF92CD
:100BE000FF920F931F93CF93DF934C01162F572E35
:100BF0005A0139018FE290E00E944A01EC01892BF1
:100C000079F0C114D10421F4C5010E944A0101C048
:100C1000C601988F8F8B009729F4CE010E947C012A
:100C20008FEFBAC0650121E0C21AD108C80ED91EE3
:100C3000BE01675E7F4FE12FF52DCF0144969F01E6
:100C40004191DB014D93BD01D9012C91222319F073
:100C5000E817F907A1F71CA6102F043008F013E0DD
:100C60001E8B1DA71EA65E01B2E0AB0EB11CC50116
:100C70000E948B01CE010C960E948B01D987C887F8
:100C800084E090E0811B91099D878C87DB8BCA8B68
:100C9000A301B401C6010E940B0299838883E11469
:100CA000F10419F0F701D183C0830FB6F8940F92C5
:100CB00080911F058F5F80931F0580916D05909136
:100CC0006E05892BA9F5D0936E05C0936D058091B3
:100CD0001F058130E1F589E495E00E947D0182E500
:100CE00095E00E947D018BE595E00E947D0184E600
:100CF00095E00E947D0180E495E00E947D0187E3FC
:100D000095E00E947D018AE295E00E947D0181E2EA
:100D100095E00E947D0180E495E0909336058093F4
:100D2000350587E395E090933405809333050FC034
:100D300080911B0581110BC0E0916D05F0916E054E
:100D40008689081720F0D0936E05C0936D058091B9
:100D500017058F5F809317058E8990911C05981752
:100D600010F480931C05F9E08F9FC0011124B50198
:100D7000875B9A4F0E948F010F900FBE80911B05D9
:100D8000882349F0E0916D05F0916E058689801702
:100D900010F40E94AC0281E0DF91CF911F910F917E
:100DA000FF90EF90DF90CF90BF90AF909F908F908B
:100DB0007F906F905F900895AF92BF92CF92DF9235
:100DC000EF92FF920F93A12CB12CC12CD12CE12CCE
:100DD000F12C00E020E030E045E550E062E670E014
:100DE00084E598E00E94E605813081F4F8948093D0
:100DF0001B0510921E0510921D050F91FF90EF909C
:100E0000DF90CF90BF90AF900C9477020F91FF903E
:100E1000EF90DF90CF90BF90AF900895809116052E
:100E20008F5F809316050895CF92DF92EF92FF9225
:100E30000F931F93CF93DF938091160581118FC07D
:100E400080911D0590911E05019690931E0580933B
:100E50001D05E0901D05F0901E05E114F104B9F4A4
:100E600080913505909136052091330530913405F8
:100E700030933605209335059093340580933305E0
:100E8000809118058F5F809318050E9493058091CB
:100E9000600090916100C0E0E816F90608F44FC0C8
:100EA000D9E0E0913505F09136058081811103C0CC
:100EB0008FEF9FEF11C0E0913505F0913605058069
:100EC000F681E02D06811781D80112968D919C91B3
:100ED0001397E816F90628F4909361008093600058
:100EE0002EC06801B2E0CB0ED11CC6010E94E80101
:100EF000F80184899589892B21F0C8010C960E94FC
:100F0000E801D80156968C9190911C05981710F421
:100F100080931C05D89FC0011124B601875B9A4FAE
:100F20000E948F01E0916D05F0916E05D8015696F3
:100F30009C918689981708F4B4CFC1E0B2CFE091B4
:100F40006D05F0916E05E689B9E0EB9FF001112483
:100F5000E75BFA4F8081823040F0C1E006C08091AB
:100F60001A058F5F80931A05C0E0809119058111E1
:100F7000C1E08C2FDF91CF911F910F91FF90EF90E7
:100F8000DF90CF900895EF92FF920F931F93CF932E
:100F9000DF930FB6F8940F928091160581508093DD
:100FA000160580911605882311F080E053C08091CA
:100FB0001F058823D1F389E0F82EEE24E394809175
:100FC0002A05882351F1E0912F05F0913005C68163
:100FD000D781CE010C960E94E8018E010E5F1F4F53
:100FE000C8010E94E8018E8990911C05981710F4A1
:100FF00080931C05F89EC0011124B801875B9A4FAD
:101000000E948F01E0916D05F0916E059E898689A1
:101010009817A8F2E0921905D2CF80911A05811194
:1010200009C080911905813009F0BFCF0E94AC0240
:1010300081E010C0C1E080911A05882391F30E94DD
:1010400014078111C093190580911A05815080936E
:101050001A05F1CF0F900FBEDF91CF911F910F9125
:10106000FF90EF900895CF93DF93EC01892B19F453
:101070000E94AC0216C00E940E0780911D0590913F
:101080001E05C80FD91F80916D0590916E050296BF
:101090000E94E801CE010E94AE050E94C30788238A
:1010A00039F3DF91CF91089580912005882349F18C
:1010B0000E940E07C09121050E94C307CC23A1F313
:1010C0000FB6F8940F92E0912605F0912705C6819E
:1010D000D781CE0102960E94E80180911F058150C0
:1010E00080931F05809120058150809320050F90EB
:1010F0000FBE8F89988D0E947C01CE010E947C01D9
:10110000D3CF80914905823078F20E94AC02CCCFD7
:1011100080911605882321F081E0809319050895B8
:101120001092190599E0E0911C059E9FF001112491
:10113000E75BFA4F8081811106C080911C058150C8
:1011400080931C05F0CF80911C0590E049E0489FFA
:101150009001499F300D1124F901E75BFA4FA181FD
:10116000B28112960D90BC91A02DB283A183245B15
:101170003A4FA217B30731F412962D913C91139771
:101180003283218329E0289FF001299FF00D11244B
:10119000E75BFA4F0180F281E02D86819781909381
:1011A0006E0580936D050895CF93DF93EB016091F9
:1011B0006D0570916E05645F7F4F0E94B001809154
:1011C0006D0590916E0502960E94E80180911D05C3
:1011D00090911E058C0F9D1FDF91CF910C94AE0551
:1011E0000F931F93CF93DF93DC011596ED91FC9144
:1011F0001697C681D7818E01045F1F4FC8010E94D8
:10120000E80180911605811114C00A501109C80126
:101210000E94E8018E8990911C05981710F4809324
:101220001C05B9E08B9FC0011124B801875B9A4F60
:1012300003C0B8018AE295E00E948F01E0916D053C
:10124000F0916E059E898689891720F481E080934C
:10125000190501C080E0DF91CF911F910F91089592
:1012600020911805FC01208320911D0530911E0559
:101270003283218308950FB6F8940F92E0911D05F3
:10128000F0911E0540911805DC015C9111962D919D
:101290003C911297541719F0E217F307A0F4DB0101
:1012A0004D915C91DF01A21BB30BA417B50758F455
:1012B000DB012E1B3F0B240F351F2D933C930E9407
:1012C000300980E001C081E00F900FBE089581E0F9
:1012D0008093190508950F931F93CF93DF93FC011B
:1012E000892B09F44CC08689A0916D05B0916E05DB
:1012F00056969C91891708F042C02485358537FDA4
:101300000CC0A0916D05B0916E0556969C9124E09D
:1013100030E0291B31093587248729E0829FC001ED
:101320001124875B9A4F228533852817390701F5E9
:101330008F01EF012296CE010E94E801E0916D0538
:10134000F0916E058689F801868B90911C0598179F
:1013500010F480931C05F9E08F9FC0011124BE0199
:10136000875B9A4FDF91CF911F910F910C948F0162
:10137000A0916D05B0916E0556968C91868BDF918C
:10138000CF911F910F9108950F931F93CF93DF93E8
:10139000FC01892B11F480E02CC086A5815086A722
:1013A000268995A52917B9F38111F5CFEF018F0192
:1013B0000E5F1F4FC8010E94E8018DA58E8B482F3C
:1013C00050E024E030E0241B350B3D872C879091C2
:1013D0001C05981710F480931C0529E0249FC00178
:1013E000259F900D1124B801875B9A4F0E948F01B1
:1013F00081E0DF91CF911F910F91089580916D054C
:1014000090916E05892B39F0E0916D05F0916E0594
:1014100086A58F5F86A780916D0590916E050895D2
:1014200020E048EE53E060E070E080916F0590911D
:1014300070050E94D804882399F387E690E00E9403
:101440003E0187E690E00E943E0120E040E050E04F
:1014500060E070E080916F05909170050E94120429
:10146000DFCF20E048EE53E060E070E080916F0550
:10147000909170050E94D804882399F080E790E04D
:101480000E943E018DE790E00E943E0120E040E096
:1014900050E060E070E080916F05909170050E94CF
:1014A000120485E090E00E943308DBCF0E945600D2
:1014B0000E94E3004AE850E061E081E00E941201EE
:1014C0000E945B0060E875E280E090E00E941C01F1
:1014D0008AE890E00C943E01AF92BF92CF92DF92E7
:1014E000EF92FF920F930E94560A81E00E94AC0493
:1014F0009093700580936F05A12CB12CC12CD12C39
:10150000E12CF12C01E020E030E044E650E060E026
:1015100070E080E19AE00E94E60502E020E030E021
:1015200044E650E060E070E081E39AE00E94E60566
:101530000E94DC0680E090E00F91FF90EF90DF903A
:10154000CF90BF90AF900895A1E21A2EAA1BBB1BAB
:10155000FD010DC0AA1FBB1FEE1FFF1FA217B3077F
:10156000E407F50720F0A21BB30BE40BF50B661F95
:10157000771F881F991F1A9469F760957095809559
:1015800090959B01AC01BD01CF010895FB01DC01E9
:1015900002C001900D9241505040D8F70895F89440
:0215A000FFCF7B
:1015A200FFFF49444C450041542B534D530D0A0053
:1015B20041542B536572766572310D0A0041542BEA
:1015C200536572766572320D0A005265732041705E
:0415D200703A20004B
:00000001FF
