S010000052544F535F4150502E737265638C
S11300000C942A000C9447000C9447000C9447006D
S11300100C9447000C9447000C9447000C943D0347
S11300200C9447000C9447000C9447000C94470030
S11300300C9447000C9447000C9447000C94470020
S11300400C9447000C9447000C9447000C94470010
S11300500C94470011241FBECFE5D8E0DEBFCDBF0E
S113006010E0A0E6B0E0E6ECFDE002C005900D92E1
S1130070A837B107D9F725E0A8E7B0E001C01D9281
S1130080A335B207E1F70E94A5060C94E1060C948F
S113009000009BB321E030E001C0220F8A95EAF70B
S11300A029272BBB08959BB3809598239BBB089568
S11300B09AB3982B9ABB0C94530080E70C9453008A
S11300C080E70E9458000C945D0084B38C6184BB6B
S11300D085B38C6185BB81B38F7181BB82B3806E24
S11300E082BB0895DA9A85E08A95F1F70000DA98E0
S11300F00895CF93C82FDB9888B3887F88BB98B3C3
S11301008C2F82958F70282F2770922B98BBC498C0
S113011098B3880F8071892B88BB0E94720088B3C2
S1130120887F88BB88B39C2F9770892B88BBC49821
S113013088B3CC0FC071C82BC8BB0E94720085ED78
S11301408A95F1F70000CF91089590E4899F600D9E
S11301501124862F815C0C947900CF93C82FDB9AED
S113016088B3887F88BB98B38C2F82958F70282F93
S11301702770922B98BBC49898B3880F8071892BF1
S113018088BB0E94720088B3887F88BB88B39C2F89
S11301909770892B88BBC49888B3CC0FC071C82BC7
S11301A0C8BB0E94720085ED8A95F1F70000CF91DB
S11301B0089582E00E9479008FE19EE40197F1F7AF
S11301C000C00000089581E00E9479008FE19EE460
S11301D00197F1F700C00000089587B3876087BBDB
S11301E0BC9AD39AD29A2FEF89EF90E021508040A5
S11301F09040E1F700C000000E94D90088E20E940C
S113020079008CE00E94790086E00E9479000C94C9
S1130210E3000F931F93CF938C01C0E0F801EC0F20
S1130220F11D8081882321F00E94AD00CF5FF6CFBD
S1130230CF911F910F910895CF93DF93EA010E940C
S1130240A500CE01DF91CF910C940901CF93DF93E8
S1130250EC010E94BB048091780090917900892B75
S113026031F48DE790E090937900809378002091A9
S11302707A0030917B00C9018C0F9D1F8D3744E0BB
S1130280940770F42817390758F4C0917800D09176
S11302907900C20FD31F90937B0080937A0002C031
S11302A0C0E0D0E00E947005CE01DF91CF910895A7
S11302B00895FC010396928381832FEF3FEF3483EB
S11302C02383968385839087878310820895FC0116
S11302D0118610860895CF93DF939C01FB01DC0106
S11302E01196CD91DC911297D383C2838C819D8129
S11302F0958384838C819D81DC0113967C936E931A
S113030012977D836C8331872087F90180818F5F09
S11303108083DF91CF9108950F931F93CF93DF9341
S11303208C01FB01808191818F3F2FEF920721F493
S1130330E801AF81B8850EC0D801139612962D91AD
S11303403C911397E901488159818417950710F06E
S1130350D901F4CF12968D919C9113979383828344
S1130360EC01FD83EC83B583A4831396FC93EE9395
S1130370129711870087F80180818F5F8083DF9156
S1130380CF911F910F910895CF93DF93FC01A08526
S1130390B1858281938124813581EC013D832C8355
S11303A0C481D5819B838A8311968D919C911297E8
S11303B0E817F90721F41296DC93CE93119711866E
S11303C010868C9181508C93DF91CF91089531E107
S11303D0FC013083319722E220833197A3E3A08389
S11303E0319760833197708331971082319760E839
S11303F0608331971082319762E06083319763E0C4
S11304006083319764E06083319765E0608331975E
S113041066E06083319767E06083319768E06083CA
S1130420319769E06083319760E16083319730836D
S1130430319732E13083319733E13083319734E1BE
S11304403083319735E13083319736E1308331970A
S113045037E13083319738E13083319739E13083A4
S1130460319730E23083319731E230833197208302
S1130470319723E22083319740833197508331971A
S113048026E22083319727E22083319728E22083D4
S1130490319729E22083319720E32083319721E3A8
S11304A02083869708951BBC89EF8ABD8BE08EBD9F
S11304B089B7806189BFA0915105B0915205CD9152
S11304C0CDBFDD91DEBFFF91EF91DF91CF91BF9161
S11304D0AF919F918F917F916F915F914F913F91D8
S11304E02F911F910F91FF90EF90DF90CF90BF90CD
S11304F0AF909F908F907F906F905F904F903F90C0
S11305002F901F900F900FBE0F90089581E00895D3
S11305100F920FB6F8940F921F9211242F923F92CC
S11305204F925F926F927F928F929F92AF92BF92FF
S1130530CF92DF92EF92FF920F931F932F933F93EB
S11305404F935F936F937F938F939F93AF93BF93D7
S1130550CF93DF93EF93FF93A0915105B091520590
S11305600DB60D920EB60D920E943506A09151055E
S1130570B0915205CD91CDBFDD91DEBFFF91EF91DA
S1130580DF91CF91BF91AF919F918F917F916F91A7
S11305905F914F913F912F911F910F91FF90EF9099
S11305A0DF90CF90BF90AF909F908F907F906F908F
S11305B05F904F903F902F901F900F900FBE0F9021
S11305C008950F920FB6F8940F921F9211242F9250
S11305D03F924F925F926F927F928F929F92AF92CF
S11305E0BF92CF92DF92EF92FF920F931F932F93BC
S11305F03F934F935F936F937F938F939F93AF93A7
S1130600BF93CF93DF93EF93FF93A0915105B091E4
S113061052050DB60D920EB60D920E94C1048111C1
S11306200E943506A0915105B0915205CD91CDBFE0
S1130630DD91DEBFFF91EF91DF91CF91BF91AF913B
S11306409F918F917F916F915F914F913F912F91E6
S11306501F910F91FF90EF90DF90CF90BF90AF90DC
S11306609F908F907F906F905F904F903F902F90CE
S11306701F900F900FBE0F9008950E94E1021895ED
S1130680E0911905F0911A058081811103C08FEF63
S11306909FEF0CC0E0911905F0911A050580F681D1
S11306A0E02D0680F781E02D828193819093610093
S11306B0809360000895CF93DF93E0915105F0910A
S11306C0520593838283209101053091020582179C
S11306D0930770F46091510570915205809117054C
S11306E0909118056E5F7F4FDF91CF910C948C0130
S11306F0EC0160915105709152058091190590911A
S11307001A056E5F7F4F0E948C018091600090916A
S11307106100C817D90720F4D0936100C09360002A
S1130720DF91CF9108955F926F927F928F929F9203
S1130730AF92BF92CF92DF92EF92FF920F931F93EB
S1130740CF93DF934C01162F572E5A0139018FE2B4
S113075090E00E942601EC01892B79F0C114D104A8
S113076021F4C5010E94260101C0C601988F8F8B18
S1130770009729F4CE010E9458018FEFBAC0650199
S113078021E0C21AD108C80ED91EBE01675E7F4F90
S1130790E12FF52DCF0144969F014191DB014D934B
S11307A0BD01D9012C91222319F0E817F907A1F70B
S11307B01CA6102F043008F013E01E8B1DA71EA6E4
S11307C05E01B2E0AB0EB11CC5010E946701CE010F
S11307D00C960E946701D987C88784E090E0811B4A
S11307E091099D878C87DB8BCA8BA301B401C60159
S11307F00E94E70199838883E114F10419F0F70159
S1130800D183C0830FB6F8940F92809103058F5F54
S1130810809303058091510590915205892BA9F588
S1130820D0935205C0935105809103058130E1F5C1
S11308308DE295E00E94590186E395E00E945901FA
S11308408FE395E00E94590188E495E00E945901E4
S113085084E295E00E9459018BE195E00E945901E0
S11308608EE095E00E94590185E095E00E945901CF
S113087084E295E090931A05809319058BE195E045
S113088090931805809317050FC08091FF04811180
S11308900BC0E0915105F09152058689081720F0AC
S11308A0D0935205C09351058091FB048F5F8093D0
S11308B0FB048E8990910005981710F4809300052D
S11308C0F9E08F9FC0011124B501835D9A4F0E9406
S11308D06B010F900FBE8091FF04882349F0E091D3
S11308E05105F09152058689801710F40E94880200
S11308F081E0DF91CF911F910F91FF90EF90DF90F6
S1130900CF90BF90AF909F908F907F906F905F90AB
S11309100895AF92BF92CF92DF92EF92FF920F931E
S1130920A12CB12CC12CD12CE12CF12C00E020E025
S113093030E045E550E062E670E081E096E00E9438
S11309409303813081F4F8948093FF04109202059C
S1130950109201050F91FF90EF90DF90CF90BF9020
S1130960AF900C9453020F91FF90EF90DF90CF90D3
S1130970BF90AF9008958091FA048F5F8093FA043A
S11309800895CF92DF92EF92FF920F931F93CF932C
S1130990DF938091FA0481118FC0809101059091B9
S11309A0020501969093020580930105E0900105EC
S11309B0F0900205E114F104B9F4809119059091C5
S11309C01A05209117053091180530931A052093C4
S11309D0190590931805809317058091FC048F5F87
S11309E08093FC040E944003809160009091610018
S11309F0C0E0E816F90608F44FC0D9E0E091190503
S1130A00F0911A058081811103C08FEF9FEF11C00F
S1130A10E0911905F0911A050580F681E02D068113
S1130A201781D80112968D919C911397E816F906B7
S1130A3028F490936100809360002EC06801B2E0B6
S1130A40CB0ED11CC6010E94C401F801848995898A
S1130A50892B21F0C8010C960E94C401D801569636
S1130A608C9190910005981710F480930005D89FFD
S1130A70C0011124B601835D9A4F0E946B01E0917D
S1130A805105F0915205D80156969C918689981784
S1130A9008F4B4CFC1E0B2CFE0915105F091520512
S1130AA0E689B9E0EB9FF0011124E35DFA4F808100
S1130AB0823040F0C1E006C08091FE048F5F8093D5
S1130AC0FE04C0E08091FD048111C1E08C2FDF9110
S1130AD0CF911F910F91FF90EF90DF90CF900895E9
S1130AE0EF92FF920F931F93CF93DF930FB6F89477
S1130AF00F928091FA0481508093FA048091FA0451
S1130B00882311F080E053C0809103058823D1F33A
S1130B1089E0F82EEE24E39480910E05882351F1A8
S1130B20E0911305F0911405C681D781CE010C968E
S1130B300E94C4018E010E5F1F4FC8010E94C401B0
S1130B408E8990910005981710F480930005F89E03
S1130B50C0011124B801835D9A4F0E946B01E0919A
S1130B605105F09152059E8986899817A8F2E09262
S1130B70FD04D2CF8091FE04811109C08091FD044F
S1130B80813009F0BFCF0E94880281E010C0C1E02B
S1130B908091FE04882391F30E94C1048111C093C3
S1130BA0FD048091FE0481508093FE04F1CF0F90E8
S1130BB00FBEDF91CF911F910F91FF90EF90089599
S1130BC0CF93DF93EC01892B19F40E94880216C09D
S1130BD00E94BB048091010590910205C80FD91FA2
S1130BE0809151059091520502960E94C401CE0154
S1130BF00E945B030E947005882339F3DF91CF9133
S1130C00089580910405882349F10E94BB04C09192
S1130C1005050E947005CC23A1F30FB6F8940F923A
S1130C20E0910A05F0910B05C681D781CE010296A9
S1130C300E94C40180910305815080930305809133
S1130C4004058150809304050F900FBE8F89988D01
S1130C500E945801CE010E945801D3CF80912D05E6
S1130C60823078F20E948802CCCF8091FA048823E3
S1130C7021F081E08093FD0408951092FD0499E031
S1130C80E09100059E9FF0011124E35DFA4F8081FD
S1130C90811106C080910005815080930005F0CF3A
S1130CA08091000590E049E0489F9001499F300DF4
S1130CB01124F901E35DFA4FA181B28112960D90DE
S1130CC0BC91A02DB283A183205D3A4FA217B30734
S1130CD031F412962D913C9113973283218329E0AC
S1130CE0289FF001299FF00D1124E35DFA4F018044
S1130CF0F281E02D8681978190935205809351056E
S1130D00089586E00E94490088EE93E00E94E00581
S1130D10F8CF85E00E94490088EE93E00E94E00548
S1130D20F8CF84E00E94490088EE93E00E94E00539
S1130D30F8CF0E9460000E94ED0047E650E061E0B9
S1130D4081E00E941C010C946500AF92BF92CF9287
S1130D50DF92EF92FF920F930E949906A12CB12C7F
S1130D60C12CD12CE12CF12C01E020E030E044E650
S1130D7050E060E070E081E896E00E94930302E0B6
S1130D8020E030E044E650E060E070E089E896E07E
S1130D900E94930303E020E030E044E650E060E08A
S1130DA070E081E996E00E9493030E94890480E048
S1130DB090E00F91FF90EF90DF90CF90BF90AF90B5
S1090DC00895F894FFCF32
S1130DC6FFFF49444C450053797374656D20496EA1
S10B0DD669746961746564002D
S9030000FC
