S010000052544F535F4150502E737265638C
S11300000C942A000C9447000C9447000C9447006D
S11300100C9447000C9447000C9447000C94AA03DA
S11300200C9447000C9447000C9447000C94470030
S11300300C9447000C9447000C9447000C94470020
S11300400C9447000C9447000C9447000C94470010
S11300500C94470011241FBECFE5D8E0DEBFCDBF0E
S113006010E0A0E6B0E0E4E9F7E102C005900D92EB
S1130070A439B107D9F725E0A4E9B0E001C01D9285
S1130080A137B207E1F70E94650B0C94C80B0C94DE
S113009000009BB3809598239BBB08959AB3982B3B
S11300A09ABB0E944900089580E70E944900089580
S11300B080E70E944E000E945400089584B38C612E
S11300C084BB85B38C6185BB81B38F7181BB82B3E3
S11300D0806E82BB08958BB384608BBB85E08A9568
S11300E0F1F700008BB38B7F8BBB0895CF93C82FA0
S11300F08BB3877F8BBB88B3887F88BB98B38C2FE7
S113010082958F70282F2770922B98BB98B39F7E6F
S113011098BB28B390E0880F991F8071822B88BB0D
S11301200E946B0088B3887F88BB88B39C2F97702C
S1130130892B88BB88B38F7E88BB28B38C2F90E033
S1130140880F991F8071822B88BB0E946B0085EDFC
S11301508A95F1F70000CF910895282F30E02F5FA2
S11301603F4F862F90E4299F800D112481500E94D7
S113017076000895CF93C82F8BB388608BBB88B368
S1130180887F88BB98B38C2F82958F70282F277017
S1130190922B98BB98B39F7E98BB28B390E0880FAE
S11301A0991F8071822B88BB0E946B0088B3887F63
S11301B088BB88B39C2F9770892B88BB88B38F7EAC
S11301C088BB28B38C2F90E0880F991F8071822BF5
S11301D088BB0E946B0085ED8A95F1F70000CF91F2
S11301E0089582E00E9476008FE19EE40197F1F782
S11301F000C00000089581E00E9476008FE19EE433
S11302000197F1F700C00000089587B3876087BBAA
S113021087B3806187BB8AB388608ABB8AB38460F2
S11302208ABB2FEF89EF90E0215080409040E1F7A6
S113023000C000000E94F10088E20E9476008CE079
S11302400E94760086E00E9476000E94FB000895DA
S11302500E94BA0008950F931F93CF938C01C0E0BE
S113026003C00E942801CF5FF801EC0FF11D8081CB
S11302708111F7CFCF911F910F910895CF93DF9301
S1130280EA010E94AD00CE010E942B01DF91CF91C3
S11302900895DC01CB01880F991FAA1FBB1F880F8B
S11302A0991FAA1FBB1F880F991FAA1FBB1F880F66
S11302B0991FAA1FBB1F9C01AD012150310941099F
S11302C0510960E074E284EF90E00E949D0B30BD20
S11302D029B988E18AB986E880BD08955D9BFECF7F
S11302E08CB90895CF92DF92EF92FF92CF93DF9370
S11302F0EC01C12CD12C760107C00E946E018FEF56
S1130300C81AD80AE80AF80AFE01EC0DFD1D80811E
S11303108111F3CFDF91CF91FF90EF90DF90CF90D9
S11303200895CF93DF93EC010E94C6078091940057
S113033090919500892B31F489E990E09093950090
S1130340809394002091960030919700C9018C0FFE
S11303509D1F8D3744E0940770F42817390770F413
S1130360C0919400D0919500C20FD31F9093970031
S11303708093960005C0C0E0D0E002C0C0E0D0E0A9
S11303800E948808CE01DF91CF9108950895FC0161
S11303900396928381832FEF3FEF348323839683E5
S11303A085839087878310820895FC0111861086C7
S11303B00895CF93DF939C01FB01DC011196CD914D
S11303C0DC911297D383C2838C819D81958384832E
S11303D08C819D81DC0113967C936E9312977D83AF
S11303E06C8331872087F90180818F5F8083DF915F
S11303F0CF910895CF93DF93EB01488159814F3F0B
S11304002FEF520721F4FC01A781B0850DC0DC0158
S1130410139601C0DF011296ED91FC911397208190
S1130420318142175307B0F71296ED91FC9113975F
S1130430FB83EA83D583C483BD83AC831396DC93A7
S1130440CE93129799878887FC0120812F5F2083A0
S1130450DF91CF910895CF93DF93FC01A085B185FF
S1130460C281D381848195819D838C83C481D5810C
S1130470828193819B838A8311968D919C9112979B
S1130480E817F90731F48481958112969C938E9331
S11304901197118610868C9181508C93DF91CF91A6
S11304A008951BBC89EF8ABD8BE08EBD89B780613E
S11304B089BF089531E1FC013083319722E2208322
S11304C03197A3E3A0833197608331977083319789
S11304D01082319760E8608331971082319762E02F
S11304E06083319763E06083319764E06083319780
S11304F065E06083319766E06083319767E06083ED
S1130500319768E06083319769E06083319760E1F7
S1130510608331973083319732E13083319733E10F
S11305203083319734E13083319735E1308331972B
S113053036E13083319737E13083319738E13083C6
S1130540319739E13083319730E23083319731E2AA
S1130550308331972083319723E22083319740837E
S113056031975083319726E22083319727E2208305
S1130570319728E22083319729E22083319720E3C1
S11305802083319721E32083869708950E945102A6
S1130590A0916D05B0916E05CD91CDBFDD91DEBF0B
S11305A0FF91EF91DF91CF91BF91AF919F918F9187
S11305B07F916F915F914F913F912F911F910F9177
S11305C0FF90EF90DF90CF90BF90AF909F908F906F
S11305D07F906F905F904F903F902F901F900F905F
S11305E00FBE0F90089581E008950F920FB6F8940E
S11305F00F921F9211242F923F924F925F926F920B
S11306007F928F929F92AF92BF92CF92DF92EF929E
S1130610FF920F931F932F933F934F935F936F9387
S11306207F938F939F93AF93BF93CF93DF93EF9376
S1130630FF93A0916D05B0916E050DB60D920EB6A7
S11306400D920E945209A0916D05B0916E05CD9155
S1130650CDBFDD91DEBFFF91EF91DF91CF91BF91CF
S1130660AF919F918F917F916F915F914F913F9146
S11306702F911F910F91FF90EF90DF90CF90BF903B
S1130680AF909F908F907F906F905F904F903F902E
S11306902F901F900F900FBE0F9008950F920FB6DA
S11306A0F8940F921F9211242F923F924F925F92CF
S11306B06F927F928F929F92AF92BF92CF92DF926E
S11306C0EF92FF920F931F932F933F934F935F9358
S11306D06F937F938F939F93AF93BF93CF93DF9346
S11306E0EF93FF93A0916D05B0916E050DB60D9239
S11306F00EB60D920E94CC0781110E945209A0915E
S11307006D05B0916E05CD91CDBFDD91DEBFFF913A
S1130710EF91DF91CF91BF91AF919F918F917F9195
S11307206F915F914F913F912F911F910F91FF9086
S1130730EF90DF90CF90BF90AF909F908F907F907D
S11307406F905F904F903F902F901F900F900FBE2F
S11307500F9008950E944E0318950FB6F8940F92C7
S1130760FC01828D811102C081E001C080E00F9004
S11307700FBE08950FB6F8940F92FC01228D838D5D
S1130780281302C081E001C080E00F900FBE0895DD
S11307901F93CF93DF93EC01142F4C8D41110CC0A8
S11307A088819981892B09F045C08A819B810E94A7
S11307B0B60A1B821A8245C0111117C050E08C8101
S11307C09D810E94BF0B2C8D8C819D81820F911D78
S11307D09D838C832A813B818217930768F18881EA
S11307E099819D838C8380E02CC050E08E819F8111
S11307F00E94BF0B8C8D90E09195819591092E817B
S11308003F81280F391F3F832E8348815981241744
S1130810350730F42A813B81820F931F9F838E8397
S1130820123061F48A8D882359F08A8D81508A8F21
S113083080E007C080E005C080E003C080E001C024
S113084080E09A8D9F5F9A8FDF91CF911F910895D9
S1130850FC01448D4423A9F050E026813781240F04
S1130860351F37832683828193812817390720F027
S11308708081918197838683CB01668177810E94F1
S1130880BF0B0895CF93DF93EC010FB6F8940F924A
S11308900DC08989882369F0CE0141960E94CB0955
S11308A081110E94500A8E8D81508E8F8E8D181664
S11308B084F38FEF8E8F0F900FBE0FB6F8940F92C4
S11308C00DC08885882369F0CE0108960E94CB0963
S11308D081110E94500A8D8D81508D8F8D8D181637
S11308E084F38FEF8D8F0F900FBEDF91CF9108951A
S11308F0CF92DF92EF92FF920F931F93CF93DF93E8
S113090000D000D01F92CDB7DEB78C017B015D8390
S11309104C83C22ED12C0FB6F8940F92F801928D0D
S1130920838D981718F0F2E0CF1219C04C2DB7013F
S1130930C8010E94C803F8019189992349F0C801AC
S113094041960E94CB09813031F40E94F50203C024
S113095081110E94F5020F900FBE81E04DC08C8181
S11309609D81892B21F40F900FBE80E045C0D110EA
S113097006C0CE0101960E94130ADD24D3940F9081
S11309800FBE0E94C6070FB6F8940F92F801858D2A
S11309908F3F09F4158EF801868D8F3F09F4168E6A
S11309A00F900FBEBE016C5F7F4FCE0101960E9477
S11309B01E0A81111BC0C8010E94BA03882381F05A
S11309C06C817D81C80108960E94AE09C8010E940D
S11309D042040E94880881119ECF0E94F5029BCF99
S11309E0C8010E9442040E94880895CFC8010E9451
S11309F042040E94880880E00F900F900F900F909F
S1130A000F90DF91CF911F910F91FF90EF90DF90A6
S1130A10CF900895CF93DF938FE190E00E949101EE
S1130A20EC01892BF9F01B821A82198218821D822B
S1130A301C821F821E821A8E81E08B8F1C8E8FEF88
S1130A408D8F8E8FCE0108960E94C701CE014196EC
S1130A500E94C70120E040E050E060E070E0CE0179
S1130A600E947804CE01DF91CF910895AF92BF9296
S1130A70CF92DF92EF92FF920F931F93CF93DF9366
S1130A8000D000D01F92CDB7DEB78C016B015D831F
S1130A904C83E22EF12C0FB6F8940F92F801828D5C
S1130AA0882399F1A680B780B601C8010E94280462
S1130AB0E1101AC0F801828D8150828F808191816A
S1130AC0892B29F40E94F60AF80193838283F801A2
S1130AD080858823B1F0C80108960E94CB09813033
S1130AE081F40E94F5020DC0F801B782A6828189C3
S1130AF0882339F0C80141960E94CB0981110E94D4
S1130B00F5020F900FBE81E05BC08C819D81892B23
S1130B1021F40F900FBE80E053C0F11006C0CE0147
S1130B2001960E94130AFF24F3940F900FBE0E94B3
S1130B30C6070FB6F8940F92F801858D8F3F09F41C
S1130B40158EF801868D8F3F09F4168E0F900FBE17
S1130B50BE016C5F7F4FCE0101960E941E0A811177
S1130B6029C0C8010E94AD038823F1F0F8018081F7
S1130B709181892B49F40FB6F8940F928281938165
S1130B800E94540A0F900FBE6C817D81C80141966A
S1130B900E94AE09C8010E9442040E948808811183
S1130BA07ACF0E94F50277CFC8010E9442040E94C6
S1130BB0880871CFC8010E9442040E94880880E01E
S1130BC00F900F900F900F900F90DF91CF911F9186
S1130BD00F91FF90EF90DF90CF90BF90AF9008956A
S1130BE0E0913505F09136058081811107C08FEFC2
S1130BF09FEF90936100809360000895E091350524
S1130C00F09136050580F681E02D0680F781E02D10
S1130C108281938190936100809360000895EF92A4
S1130C20FF920F931F93CF93DF937C01EB018FE22D
S1130C3090E00E9491018C01892B89F0209721F486
S1130C40C7010E94910101C0CE01F801908F878BEA
S1130C50892B29F4C8010E94C60100E010E0C801F4
S1130C60DF91CF911F910F91FF90EF900895CF9353
S1130C70DF93EC018F89988D0E94C601CE010E94FA
S1130C80C601DF91CF9108951F93CF93DF93EC01B9
S1130C90142F20E00FC0822F90E0FB01E80FF91F12
S1130CA03081DE01A80FB91F59963C9380818823B7
S1130CB019F02F5F243178F31CA6143008F013E0E8
S1130CC01E8B1DA71EA6CE0102960E94D501CE0141
S1130CD00C960E94D501D987C88784E090E0811BD7
S1130CE091099D878C87DB8BCA8BDF91CF911F91F4
S1130CF00895CF93C0E010C08C2F90E09C01220F88
S1130D00331F220F331F220F331F820F931F875B62
S1130D109A4F0E94C701CF5FC43070F380E495E01E
S1130D200E94C70187E395E00E94C7018AE295E02B
S1130D300E94C70181E295E00E94C70180E495E02A
S1130D40909336058093350587E395E090933405B9
S1130D5080933305CF910895CF93DF93EC01E09115
S1130D606D05F0916E059383828380911D059091AA
S1130D701E05C817D90768F460916D0570916E055A
S1130D8080913305909134056E5F7F4F0E94FA0184
S1130D9017C060916D0570916E0580913505909135
S1130DA036056E5F7F4F0E94FA018091600090913A
S1130DB06100C817D90720F4D0936100C093600084
S1130DC0DF91CF9108952F923F924F925F927F923D
S1130DD08F929F92AF92BF92CF92DF92EF92FF9247
S1130DE00F931F93CF93DF9300D000D0CDB7DEB71E
S1130DF09A8389834B015C834B831901702EB6015E
S1130E002501CA010E940F065C01009709F46AC01B
S1130E10FC01C788D08C8B819C810197C80ED91E98
S1130E200B811C819201472DB401C5010E94440627
S1130E30A10169817A81C6010E945A02F501918358
S1130E408083E114F10419F0F701B182A0820FB696
S1130E50F8940F9280911F058F5F80931F058091F6
S1130E606D0590916E05892B59F4B0926E05A09290
S1130E706D0580911F05813091F40E9479060FC0A1
S1130E8080911B0581110BC0E0916D05F0916E05F9
S1130E908689781620F0B0926E05A0926D05809137
S1130EA017058F5F80931705F501868990911C05BE
S1130EB0981710F480931C0590E0B5016E5F7F4F86
S1130EC09C01220F331F220F331F220F331F820F67
S1130ED0931F875B9A4F0E94D9010F900FBEF1E0D8
S1130EE0F98302C08FEF8983E981E13069F480914D
S1130EF01B05882349F0E0916D05F0916E05868904
S1130F00871510F40E94F50289810F900F900F90BD
S1130F100F90DF91CF911F910F91FF90EF90DF9091
S1130F20CF90BF90AF909F908F907F905F904F90A5
S1130F303F902F900895AF92BF92CF92DF92EF929D
S1130F40FF920F93A12CB12CC12CD12CE12CF12CAC
S1130F5000E020E030E045E550E062E670E089E43E
S1130F6099E00E94E306813049F4F89480931B05CC
S1130F7010921E0510921D050E94C6020F91FF904B
S1130F80EF90DF90CF90BF90AF90089580911605B9
S1130F908F5F809316050895DF92EF92FF920F936F
S1130FA01F93CF93DF9380911605811199C080918F
S1130FB01D0590911E05019690931E0580931D05B5
S1130FC0E0901D05F0901E05E114F104B9F4809140
S1130FD035059091360520913305309134053093D1
S1130FE0360520933505909334058093330580911D
S1130FF018058F5F809318050E94F00580916000AA
S113100090916100E816F90628F4D12C53C0DD2430
S1131010D39401C0D12CE0913505F091360580813F
S1131020811107C08FEF9FEF909361008093600060
S113103041C0E0913505F09136050580F681E02D3B
S1131040C681D7818A819B81E816F90628F490939A
S11310506100809360002EC08E010E5F1F4FC80197
S11310600E942B028C899D89892B21F0CE010C963C
S11310700E942B028E8990911C05981710F480937E
S11310801C0590E09C01220F331F220F331F220FF7
S1131090331F820F931FB801875B9A4F0E94D901B7
S11310A09E89E0916D05F0916E058689981708F088
S11310B0AECFB1CFE0916D05F0916E05868990E0D9
S11310C0FC01EE0FFF1FEE0FFF1FEE0FFF1F8E0F31
S11310D09F1FFC01E75BFA4F8081823040F409C016
S11310E080911A058F5F80931A05D12C02C0DD24EC
S11310F0D39480911905882311F0DD24D3948D2D88
S1131100DF91CF911F910F91FF90EF90DF900895A1
S11311100F931F93CF93DF930FB6F8940F928091A0
S1131120160581508093160580911605811157C0CC
S113113080911F05811132C055C0E0912F05F091B7
S11311403005C681D781CE010C960E942B028E01F8
S11311500E5F1F4FC8010E942B028E8990911C05BF
S1131160981710F480931C0590E09C01220F331F04
S1131170220F331F220F331F820F931FB801875B87
S11311809A4F0E94D9019E89E0916D05F0916E05F8
S11311908689981718F081E08093190580912A05B3
S11311A08111CBCF80911A0581110DC010C00E940E
S11311B0CC07882319F081E08093190580911A05E2
S11311C0815080931A0580911A058111F0CF809186
S11311D01905813031F40E94F50281E003C080E0FA
S11311E001C080E00F900FBEDF91CF911F910F914E
S11311F00895CF93DF93EC01892BA9F00E94C607D1
S113120080911D0590911E05C80FD91F80916D0511
S113121090916E0502960E942B02CE010E94AC06AC
S11312200E94880801C080E0811102C00E94F5027A
S1131230DF91CF910895CF93DF9324C00E94C60716
S1131240C09121050E948808CC23E1F00FB6F894E0
S11312500F92E0912605F0912705C681D781CE0132
S113126002960E942B0280911F05815080931F05D6
S1131270809120058150809320050F900FBECE01F0
S11312800E943706809120058111D8CFDF91CF913C
S113129008950E941B09809149058230D0F30E9471
S11312A0F502F7CF80911605882321F081E0809321
S11312B0190508951092190505C080911C058150E7
S11312C080931C0580911C0590E0FC01EE0FFF1F2C
S11312D0EE0FFF1FEE0FFF1F8E0F9F1FFC01E75B3A
S11312E0FA4F8081882349F380911C0590E09C018A
S11312F0220F331F220F331F220F331F280F391FD2
S1131300D901A75BBA4F1196ED91FC911297028017
S1131310F381E02D1296FC93EE931197245B3A4FE0
S1131320E217F30729F422813381FD0132832183FB
S1131330FC01EE0FFF1FEE0FFF1FEE0FFF1F8E0FBE
S11313409F1FFC01E75BFA4F0180F281E02D86814B
S1131350978190936E0580936D050895CF93DF93E5
S1131360EB0160916D0570916E05645F7F4F0E9483
S1131370FA0180916D0590916E0502960E942B02F0
S113138080911D0590911E058C0F9D1F0E94AC0637
S1131390DF91CF9108950F931F93CF93DF93DC01D7
S11313A01596ED91FC911697C681D7818E01045F45
S11313B01F4FC8010E942B028091160581111CC089
S11313C00A501109C8010E942B028E8990911C05B4
S11313D0981710F480931C0590E09C01220F331F92
S11313E0220F331F220F331F820F931FB801875B15
S11313F09A4F0E94D90105C0B8018AE295E00E9483
S1131400D9019E89E0916D05F0916E058689891751
S113141020F481E08093190501C080E0DF91CF9131
S11314201F910F91089520911805FC0120832091AC
S11314301D0530911E05328321830895CF93DF93D8
S1131440FC010FB6F8940F9240911D0550911E05B2
S1131450908180911805981729F08181928148170D
S11314605907B0F421813281CA01821B930BEB012D
S1131470A881B9818A179B0768F4CF01241B350B17
S11314802A0F3B1F398328830E94130A80E003C07C
S113149081E001C081E00F900FBEDF91CF910895EC
S11314A081E08093190508950F931F93CF93DF93E1
S11314B0FC01892B09F455C02689A0916D05B091D2
S11314C06E0556968C91281708F04BC08485958537
S11314D0992364F0A0916D05B0916E0556963C91E8
S11314E084E090E0831B91099587848782859385A6
S11314F030E0A901440F551F440F551F440F551FD9
S1131500240F351F275B3A4F8217930719F58F0174
S1131510EF012296CE010E942B02E0916D05F0911D
S11315206E058689F801868B90911C05981710F436
S113153080931C0590E09C01220F331F220F331F60
S1131540220F331F820F931FBE01875B9A4F0E94A5
S1131550D90107C0A0916D05B0916E0556968C9186
S1131560868BDF91CF911F910F9108950F931F9355
S1131570CF93DF93FC01892B79F186A5815086A74F
S1131580268995A5291751F181112AC0EF018F01F0
S11315900E5F1F4FC8010E942B028DA58E8B24E085
S11315A030E0281B31093D872C8790911C05981742
S11315B010F480931C0590E09C01220F331F220F2E
S11315C0331F220F331F820F931FB801875B9A4F7B
S11315D00E94D90181E005C080E003C080E001C021
S11315E080E0DF91CF911F910F91089580916D0557
S11315F090916E05892B39F0E0916D05F0916E059F
S113160086A58F5F86A780916D0590916E050895DC
S113161020E048EE53E060E070E080916F05909127
S113162070050E943605882399F387E690E00E94AE
S1131630720187E690E00E94720120E040E050E0F1
S113164060E070E080916F05909170050E947804CD
S1131650DFCF20E048EE53E060E070E080916F055A
S1131660909170050E943605882399F080E790E0F8
S11316700E9472018DE790E00E94720120E040E038
S113168050E060E070E080916F05909170050E94D9
S1131690780485E090E00E94F908DBCF0E945800AE
S11316A00E9405014AE850E061E081E00E943E01A9
S11316B00E945E0060E875E280E090E00E944901CB
S11316C08AE890E00E9472010895AF92BF92CF928F
S11316D0DF92EF92FF920F930E944E0B81E00E94E3
S11316E00A059093700580936F05A12CB12CC12C31
S11316F0D12CE12CF12C01E020E030E044E650E074
S113170060E070E088E09BE00E94E30602E020E0F5
S113171030E044E650E060E070E089E29BE00E9443
S1131720E3060E949B0780E090E00F91FF90EF900A
S1131730DF90CF90BF90AF900895A1E21A2EAA1B1C
S1131740BB1BFD010DC0AA1FBB1FEE1FFF1FA2176D
S1131750B307E407F50720F0A21BB30BE40BF50B6A
S1131760661F771F881F991F1A9469F760957095F3
S1131770809590959B01AC01BD01CF010895FB01BB
S1131780DC0102C001900D9241505040D8F70895F9
S1071790F894FFCFF7
S1131794FFFF49444C450041542B534D530D0A005B
S11317A441542B536572766572310D0A0041542BF2
S11317B4536572766572320D0A0052657320417066
S10717C4703A200053
S9030000FC
